{
  "contractName": "DappToken",
  "abi": [
    {
      "constant": true,
      "inputs": [],
      "name": "totalSupply",
      "outputs": [
        {
          "name": "",
          "type": "uint256"
        }
      ],
      "payable": false,
      "stateMutability": "view",
      "type": "function",
      "signature": "0x18160ddd"
    },
    {
      "inputs": [],
      "payable": false,
      "stateMutability": "nonpayable",
      "type": "constructor",
      "signature": "constructor"
    },
    {
      "constant": false,
      "inputs": [],
      "name": "DappTokenSupply",
      "outputs": [],
      "payable": false,
      "stateMutability": "nonpayable",
      "type": "function",
      "signature": "0x878a2c82"
    }
  ],
  "bytecode": "0x608060405234801561001057600080fd5b50620f424060008190555060c8806100296000396000f3fe6080604052600436106049576000357c0100000000000000000000000000000000000000000000000000000000900463ffffffff16806318160ddd14604e578063878a2c82146076575b600080fd5b348015605957600080fd5b506060608a565b6040518082815260200191505060405180910390f35b348015608157600080fd5b5060886090565b005b60005481565b620f424060008190555056fea165627a7a72305820e8f4d2039e1fae770db1a2ac32e2a1a4b6607adf3815ecfb80cb2f5b856292660029",
  "source": "pragma solidity >=0.4.21 <0.6.0;\r\n\r\ncontract DappToken {\r\n  uint public totalSupply;\r\n\r\n   constructor () public {\r\n        totalSupply = 1000000;\r\n    }\r\n\r\n    function DappTokenSupply () public {\r\n        totalSupply = 1000000;\r\n    }\r\n}",
  "sourcePath": "C:/xampp/htdocs/Blockchain-Ethereum-ERC-20-Tokens-and-Crowd-Sales-ICOs-/contracts/DappToken.sol",
  "compiler": {
    "name": "solc",
    "version": "0.5.0+commit.1d4f565a.Emscripten.clang"
  },
  "schemaVersion": "3.0.1",
  "updatedAt": "2019-11-06T16:48:45.352Z",
  "devdoc": {
    "methods": {}
  },
  "userdoc": {
    "methods": {}
  }
}